{"abi":[{"type":"constructor","inputs":[{"name":"_usdtAddress","type":"address","internalType":"address"}],"stateMutability":"nonpayable"},{"type":"function","name":"LOCK_PERIOD","inputs":[],"outputs":[{"name":"","type":"uint256","internalType":"uint256"}],"stateMutability":"view"},{"type":"function","name":"deposit","inputs":[{"name":"amount","type":"uint256","internalType":"uint256"}],"outputs":[],"stateMutability":"nonpayable"},{"type":"function","name":"deposits","inputs":[{"name":"","type":"address","internalType":"address"}],"outputs":[{"name":"amount","type":"uint256","internalType":"uint256"},{"name":"depositTime","type":"uint256","internalType":"uint256"},{"name":"unlockTime","type":"uint256","internalType":"uint256"},{"name":"isDeposited","type":"bool","internalType":"bool"}],"stateMutability":"view"},{"type":"function","name":"getDeposit","inputs":[{"name":"user","type":"address","internalType":"address"}],"outputs":[{"name":"amount","type":"uint256","internalType":"uint256"},{"name":"depositTime","type":"uint256","internalType":"uint256"},{"name":"unlockTime","type":"uint256","internalType":"uint256"},{"name":"isDeposited","type":"bool","internalType":"bool"}],"stateMutability":"view"},{"type":"function","name":"usdt","inputs":[],"outputs":[{"name":"","type":"address","internalType":"contract IERC20"}],"stateMutability":"view"},{"type":"function","name":"withdraw","inputs":[],"outputs":[],"stateMutability":"nonpayable"},{"type":"event","name":"Deposited","inputs":[{"name":"user","type":"address","indexed":true,"internalType":"address"},{"name":"amount","type":"uint256","indexed":false,"internalType":"uint256"},{"name":"unlockTime","type":"uint256","indexed":false,"internalType":"uint256"}],"anonymous":false},{"type":"event","name":"Withdrawn","inputs":[{"name":"user","type":"address","indexed":true,"internalType":"address"},{"name":"amount","type":"uint256","indexed":false,"internalType":"uint256"}],"anonymous":false}],"bytecode":{"object":"0x60a060405234801561000f575f5ffd5b50604051610dbb380380610dbb833981810160405281019061003191906100c9565b8073ffffffffffffffffffffffffffffffffffffffff1660808173ffffffffffffffffffffffffffffffffffffffff1681525050506100f4565b5f5ffd5b5f73ffffffffffffffffffffffffffffffffffffffff82169050919050565b5f6100988261006f565b9050919050565b6100a88161008e565b81146100b2575f5ffd5b50565b5f815190506100c38161009f565b92915050565b5f602082840312156100de576100dd61006b565b5b5f6100eb848285016100b5565b91505092915050565b608051610ca161011a5f395f81816101350152818161029d01526104b20152610ca15ff3fe608060405234801561000f575f5ffd5b5060043610610060575f3560e01c80631820cabb146100645780632f48ab7d146100825780633ccfd60b146100a0578063b6b55f25146100aa578063e1254fba146100c6578063fc7e286d146100f9575b5f5ffd5b61006c61012c565b6040516100799190610744565b60405180910390f35b61008a610133565b60405161009791906107d7565b60405180910390f35b6100a8610157565b005b6100c460048036038101906100bf919061081e565b6103cb565b005b6100e060048036038101906100db9190610884565b610683565b6040516100f094939291906108c9565b60405180910390f35b610113600480360381019061010e9190610884565b6106f5565b60405161012394939291906108c9565b60405180910390f35b6201518081565b7f000000000000000000000000000000000000000000000000000000000000000081565b5f5f5f3373ffffffffffffffffffffffffffffffffffffffff1673ffffffffffffffffffffffffffffffffffffffff1681526020019081526020015f209050806003015f9054906101000a900460ff166101e6576040517f08c379a00000000000000000000000000000000000000000000000000000000081526004016101dd90610966565b60405180910390fd5b806002015442101561022d576040517f08c379a0000000000000000000000000000000000000000000000000000000008152600401610224906109ce565b60405180910390fd5b5f815f015490505f5f3373ffffffffffffffffffffffffffffffffffffffff1673ffffffffffffffffffffffffffffffffffffffff1681526020019081526020015f205f5f82015f9055600182015f9055600282015f9055600382015f6101000a81549060ff021916905550505f7f000000000000000000000000000000000000000000000000000000000000000073ffffffffffffffffffffffffffffffffffffffff1663a9059cbb33846040518363ffffffff1660e01b81526004016102f69291906109fb565b6020604051808303815f875af1158015610312573d5f5f3e3d5ffd5b505050506040513d601f19601f820116820180604052508101906103369190610a4c565b905080610378576040517f08c379a000000000000000000000000000000000000000000000000000000000815260040161036f90610ac1565b60405180910390fd5b3373ffffffffffffffffffffffffffffffffffffffff167f7084f5476618d8e60b11ef0d7d3f06914655adb8793e28ff7f018d4c76d505d5836040516103be9190610744565b60405180910390a2505050565b5f811161040d576040517f08c379a000000000000000000000000000000000000000000000000000000000815260040161040490610b29565b60405180910390fd5b5f5f3373ffffffffffffffffffffffffffffffffffffffff1673ffffffffffffffffffffffffffffffffffffffff1681526020019081526020015f206003015f9054906101000a900460ff1615610499576040517f08c379a000000000000000000000000000000000000000000000000000000000815260040161049090610b91565b60405180910390fd5b5f4290505f62015180826104ad9190610bdc565b90505f7f000000000000000000000000000000000000000000000000000000000000000073ffffffffffffffffffffffffffffffffffffffff166323b872dd3330876040518463ffffffff1660e01b815260040161050d93929190610c0f565b6020604051808303815f875af1158015610529573d5f5f3e3d5ffd5b505050506040513d601f19601f8201168201806040525081019061054d9190610a4c565b90508061058f576040517f08c379a000000000000000000000000000000000000000000000000000000000815260040161058690610ac1565b60405180910390fd5b6040518060800160405280858152602001848152602001838152602001600115158152505f5f3373ffffffffffffffffffffffffffffffffffffffff1673ffffffffffffffffffffffffffffffffffffffff1681526020019081526020015f205f820151815f015560208201518160010155604082015181600201556060820151816003015f6101000a81548160ff0219169083151502179055509050503373ffffffffffffffffffffffffffffffffffffffff167f73a19dd210f1a7f902193214c0ee91dd35ee5b4d920cba8d519eca65a7b488ca8584604051610675929190610c44565b60405180910390a250505050565b5f5f5f5f5f5f5f8773ffffffffffffffffffffffffffffffffffffffff1673ffffffffffffffffffffffffffffffffffffffff1681526020019081526020015f209050805f015481600101548260020154836003015f9054906101000a900460ff169450945094509450509193509193565b5f602052805f5260405f205f91509050805f015490806001015490806002015490806003015f9054906101000a900460ff16905084565b5f819050919050565b61073e8161072c565b82525050565b5f6020820190506107575f830184610735565b92915050565b5f73ffffffffffffffffffffffffffffffffffffffff82169050919050565b5f819050919050565b5f61079f61079a6107958461075d565b61077c565b61075d565b9050919050565b5f6107b082610785565b9050919050565b5f6107c1826107a6565b9050919050565b6107d1816107b7565b82525050565b5f6020820190506107ea5f8301846107c8565b92915050565b5f5ffd5b6107fd8161072c565b8114610807575f5ffd5b50565b5f81359050610818816107f4565b92915050565b5f60208284031215610833576108326107f0565b5b5f6108408482850161080a565b91505092915050565b5f6108538261075d565b9050919050565b61086381610849565b811461086d575f5ffd5b50565b5f8135905061087e8161085a565b92915050565b5f60208284031215610899576108986107f0565b5b5f6108a684828501610870565b91505092915050565b5f8115159050919050565b6108c3816108af565b82525050565b5f6080820190506108dc5f830187610735565b6108e96020830186610735565b6108f66040830185610735565b61090360608301846108ba565b95945050505050565b5f82825260208201905092915050565b7f4e6f206465706f73697420666f756e64000000000000000000000000000000005f82015250565b5f61095060108361090c565b915061095b8261091c565b602082019050919050565b5f6020820190508181035f83015261097d81610944565b9050919050565b7f46756e647320617265207374696c6c206c6f636b6564000000000000000000005f82015250565b5f6109b860168361090c565b91506109c382610984565b602082019050919050565b5f6020820190508181035f8301526109e5816109ac565b9050919050565b6109f581610849565b82525050565b5f604082019050610a0e5f8301856109ec565b610a1b6020830184610735565b9392505050565b610a2b816108af565b8114610a35575f5ffd5b50565b5f81519050610a4681610a22565b92915050565b5f60208284031215610a6157610a606107f0565b5b5f610a6e84828501610a38565b91505092915050565b7f5472616e73666572206661696c656400000000000000000000000000000000005f82015250565b5f610aab600f8361090c565b9150610ab682610a77565b602082019050919050565b5f6020820190508181035f830152610ad881610a9f565b9050919050565b7f416d6f756e74206d7573742062652067726561746572207468616e20300000005f82015250565b5f610b13601d8361090c565b9150610b1e82610adf565b602082019050919050565b5f6020820190508181035f830152610b4081610b07565b9050919050565b7f596f7520616c726561647920686176652061206465706f7369740000000000005f82015250565b5f610b7b601a8361090c565b9150610b8682610b47565b602082019050919050565b5f6020820190508181035f830152610ba881610b6f565b9050919050565b7f4e487b71000000000000000000000000000000000000000000000000000000005f52601160045260245ffd5b5f610be68261072c565b9150610bf18361072c565b9250828201905080821115610c0957610c08610baf565b5b92915050565b5f606082019050610c225f8301866109ec565b610c2f60208301856109ec565b610c3c6040830184610735565b949350505050565b5f604082019050610c575f830185610735565b610c646020830184610735565b939250505056fea2646970667358221220573d39d2470d7bf2b827a6515a702b22712e642baf7c8fbef88b5502d48ac44a64736f6c63430008230033","linkReferences":{}},"methodIdentifiers":{"LOCK_PERIOD()":"1820cabb","deposit(uint256)":"b6b55f25","deposits(address)":"fc7e286d","getDeposit(address)":"e1254fba","usdt()":"2f48ab7d","withdraw()":"3ccfd60b"},"id":20}